:100000000C9480100C949D100C949D100C949D10D9
:100010000C949D100C949D100C949D100C949D10AC
:100020000C949D100C949D100C949D100C949D109C
:100030000C949D100C949F100C949D100C949D108A
:100040000C949D100C949D100C949D100C949D107C
:100050000C949D101018205F0000000000000000AC
:100060000000000000000000000000000000000090
:100070000000000000000000000000000000000080
:1000800000000000000000000000038003800380E7
:100090000380038003800180018001800180018052
:1000A0000180000000000000038003800380000046
:1000B000000000000000000000001FF81FF81E787C
:1000C0001E780E700C300C300C3000000000000068
:1000D0000000000000000000000000000000000020
:1000E00000000000000000000000066006600660DE
:1000F00006601FF81FF80660066006601FF81FF80C
:100100000660066006600660000000000000000057
:10011000000000000000000000000180018001805C
:1001200001801FF81FF8180018001FF81FF80018AA
:1001300000181FF81FF80180018001800180000075
:10014000000000000000000000001C001C181C182B
:1001500000300030006000E000C00180018003003A
:10016000070006000C000C00183818380038000092
:1001700000000000000000000000000000000FC0B0
:100180000FC018601860186018600CC00780070066
:100190000F801DC818F8187018F00FD80F980000BD
:1001A0000000000000000000000003C003C003C006
:1001B000038003800380038003000300030000002A
:1001C000000000000000000000000000000000002F
:1001D000000000000000000000000030006000C0CF
:1001E00001800380030003000300030003000300F9
:1001F000030003000380018000C0006000300000A5
:10020000000000000000000000000C0006000300D9
:10021000018001C000C000C000C000C000C000C01C
:1002200000C000C001C00180030006000C000000F7
:10023000000000000000000000000000000001803D
:100240000180198819980FF007E003C003C007E088
:100250000FF01DB81198018001800000000000001F
:10026000000000000000000000000000000000008E
:10027000000001800180018001801FF81FF80180CB
:1002800001800180018000000000000000000000EB
:10029000000000000000000000000000000000005E
:1002A000000000000000000000000000000007E067
:1002B00007E0006000600060006000600060000017
:1002C000000000000000000000000000000000002E
:1002D0000000000000000000000000001FF81FF8F0
:1002E000000000000000000000000000000000000E
:1002F00000000000000000000000000000000000FE
:1003000000000000000000000000000000000000ED
:100310000000038003800380000000000000000054
:10032000000000000000000000000018001800306D
:1003300000300060006000C000C001800180030048
:100340000300060006000C000C0018001800000056
:10035000000000000000000000000FF01FF8181857
:10036000181818181818181818181818181818180D
:10037000181818181818181818181FF80FF0000077
:10038000000000000000000000001F801F800180AE
:10039000018001800180018001800180018001983D
:1003A000019801980198019801981FF81FF8000022
:1003B000000000000000000000001FF01FF80018FF
:1003C000001800180018001800180FF81FF0180087
:1003D000180018001800180018001FF81FF8000077
:1003E000000000000000000000001FF81FFC000CCF
:1003F000000C000C000C000C000C07F807F8000CB7
:10040000000C000C000C000C000C1FFC1FF800007E
:100410000000000000000000000018001800183064
:1004200018301830183018301830183018301FF8BD
:100430001FF8003000300030003000300030000085
:100440000000000000000000000007F807F80600A8
:100450000600060006000600060007F007F8001870
:10046000001800180018001818181FF807F00000EE
:10047000000000000000000000001C001C0018002C
:1004800018001800180018001800180018001FF8AD
:100490001FF818181818181818181FF81FF8000057
:1004A000000000000000000000001FF81FF81818EE
:1004B000001800180018001800180030006000C074
:1004C00001800180018001800180018001800000A5
:1004D0000000000000000000000007E007E00660E8
:1004E000066006600660066006600FF01FF81818C8
:1004F000181818181818181818181FF80FF00000F6
:10050000000000000000000000001FF81FF818188D
:100510001818181818181FF81FF8001800180018D5
:1005200000180018001800180018003800380000E3
:1005300000000000000000000000000000000000BB
:100540000000038003800380000000000000000022
:100550000380038003800000000000000000000012
:10056000000000000000000000000000000000008B
:10057000070007000700000000000000000007E07F
:1005800007E0006000600060006000600060000044
:10059000000000000000000000000000000000005B
:1005A0000018007800E001C007000E001C000E00DB
:1005B000070001C000E00078001800000000000003
:1005C000000000000000000000000000000000002B
:1005D000000000001FF81FF80000000000001FF8D6
:1005E0001FF80000000000000000000000000000F4
:1005F00000000000000000000000000000000000FB
:1006000018001E000700038000E000700038007032
:1006100000E0038007001E0018000000000000003A
:10062000000000000000000000000020006001F059
:10063000039807180E18187010E001C00380060018
:10064000060006000600000000000600060000008C
:100650000000000000000000000007E00FF0181884
:1006600018180018001800180F980F981998199862
:10067000199819981998199819980FF00FF0000007
:1006800000000000000000000000018001800180E7
:1006900003C003C003C003C00660066006600660B6
:1006A0000C300FF00FF00C30181818181818000044
:1006B000000000000000000000001FF01FF8181CE0
:1006C000180C180C180C180C181C1FF81FF8181C04
:1006D000180C180C180C180C181C1FF81FF0000030
:1006E0000000000000000000000001FC03FC03000B
:1006F000060006000C000C00180018001800180076
:100700001C000C000E000600070003FC01FC0000AA
:10071000000000000000000000001FC01FE0067085
:100720000630063006180618060C060C060C060CD9
:10073000061C06180638063006701FE01FC00000B1
:10074000000000000000000000001FFC1FFC18005B
:10075000180018001800180018001FC01FC018004B
:10076000180018001800180018001FFC1FFC0000DB
:10077000000000000000000000001FFC1FFC18002B
:100780001800180018001FF01FF0180018001800BB
:1007900018001800180018001800180018000000B1
:1007A0000000000000000000000001F803F8030052
:1007B00006000E000C00180018001800180018F8A9
:1007C00018F818181818181818180FF80FF0000053
:1007D0000000000000000000000018181818181889
:1007E000181818181818181818181FF81FF81818BB
:1007F00018181818181818181818181818180000A9
:10080000000000000000000000001FF81FF8018039
:1008100001800180018001800180018001800180D0
:10082000018001800180018001801FF81FF8000015
:100830000000000000000000000000180018001870
:1008400000180018001800180018001800180C18DC
:100850000C180C180C180C180C1807F003E000000A
:1008600000000000000000000000180C18181830EC
:10087000186018C019801B001E001C001E001F00FD
:100880001B8019C018E0187018301818180C0000D8
:100890000000000000000000000018001800180010
:1008A0001800180018001800180018001800180088
:1008B000180018001800180018001FF81FF8000092
:1008C000000000000000000000001C381C381E78EA
:1008D0001EF81BD81998199819981818181818186C
:1008E00018181818181818181818181818180000B8
:1008F000000000000000000000001C181C181E185A
:100900001E181E181B181B181B181998199818D890
:1009100018D818D8187818781878183818380000A7
:100920000000000000000000000003C003C00660DB
:1009300006600E700C300C3018181818181818189B
:100940000C300C300E700660066003C001C0000061
:10095000000000000000000000001FF01FF0181849
:100960001818181818181818181818181FF01FF049
:1009700018001800180018001800180018000000CF
:1009800000000000000000000000007000F801D826
:10099000039807180C181818181818181818199808
:1009A000199819F018E019C01BE01F780E780000A4
:1009B000000000000000000000001FF01FF81818E1
:1009C0001818181818181FF81FF01980198018C067
:1009D00018C018601860183018301818181800005F
:1009E000000000000000000000000FF01FF81818C1
:1009F00018180C000600060003000180018000C0EA
:100A0000006000600030181818181FF80FF0000080
:100A1000000000000000000000001FF81FF81998F7
:100A2000199801800180018001800180018001808E
:100A3000018001800180018001800180018000002F
:100A40000000000000000000000018181818181816
:100A50001818181818181818181818181818181816
:100A6000181818181818181818180FF00FF0000098
:100A700000000000000000000000181818181818E6
:100A800018181818181818180C300C300E7006604A
:100A9000066007E003C003C003C0018001800000BE
:100AA00000000000000000000000181818181818B6
:100AB0001818181818181998199819981998199831
:100AC000199819981998199819980FF00FF00000B3
:100AD00000000000000000000000181818180C307A
:100AE0000C300660066003C003C00180018003C0B3
:100AF00003C0066006600C300C301818181800008F
:100B00000000000000000000000018181818181855
:100B100018180C300E6007E003C0018001800180CE
:100B2000018001800180018001800180018000003E
:100B3000000000000000000000001FF81FF8003057
:100B400000300060006000C000C001800180030030
:100B50000300060006000C000C001FF81FF8000040
:100B6000000000000000000000001FF81FF81B003C
:100B70001B001B001B001B001B001B001B001B009D
:100B80001B001B001B001B001B001FF81FF80000B0
:100B900000000000000000000000180018000C0019
:100BA0000C000600070003000180018000C000C0A7
:100BB00000600070003000180018000C000C0000ED
:100BC000000000000000000000001FF81FF800D81F
:100BD00000D800D800D800D800D800D800D800D855
:100BE00000D800D800D800D800D81FF81FF800009F
:100BF00000000000000000000000000000000000F5
:100C000000000180018003C003C007E007E00E7010
:100C10000E701C301C381818000000000000000086
:100C200000000000000000000000000000000000C4
:100C300000000000000000000000000000000000B4
:100C400000000000000000000000000000000000A4
:100C5000FFFFFFFF000000000000060007C003E0E8
:100C60000060000000000000000000000000000024
:100C70000000000000000000000000000000000074
:100C80000000000000000000000000000000000064
:100C90000000000007F007F00018001800180FF817
:100CA0000FF818181818181818381FF80FD800005F
:100CB00000000000000000000000180018001800EC
:100CC000180018001BE01FF01E381C181818181800
:100CD0001818181818181C181E381FF01BE00000F0
:100CE0000000000000000000000000000000000004
:100CF0000000000003FC07FC0E001C001800180098
:100D00001800180018001C000E0007FC03FC00006F
:100D1000000000000000000000000018001800188B
:100D20000018001807D80FF81C7818381818181869
:100D300018181818181818381C780FF807D8000059
:100D400000000000000000000000000000000000A3
:100D50000000000007E00FF01C38181818181818C9
:100D60001FF81FF8180018001C000FF807F8000003
:100D70000000000000000000000000FC01FC0380F7
:100D8000030003000FF00FF0030003000300030053
:100D9000030003000300030003000300030000003E
:100DA0000000000000000000000000000000000043
:100DB0000000000007D80FF81C7818381818181809
:100DC0001818181818381C780FF807D800180018C9
:100DD000001800380FF00FE000001800180018008D
:100DE0001800180019F01BF01F181C1818181818F4
:100DF00018181818181818181818181818180000A3
:100E00000000000000000000038003800380000059
:100E1000000000000F800F800180018001800180B0
:100E2000018001800180018001800FF00FF000003F
:100E3000000000000000000000380038003800000A
:100E40000000000003F803F800180018001800184C
:100E500000180018001800180018001800180018D2
:100E60000C180C1807F003E0000018001800180018
:100E7000180018001830186018C019801B801F0057
:100E80001E001F00198018C01860183018180000C4
:100E9000000000000000000000000F800F800180B3
:100EA000018001800180018001800180018001803A
:100EB000018001800180018001800FF00FF00000AF
:100EC0000000000000000000000000000000000022
:100ED000000000003F783FFC39CC318C318C318CE4
:100EE000318C318C318C318C318C318C318C0000D7
:100EF00000000000000000000000000000000000F2
:100F00000000000019F01BF01F181C181818181802
:100F10001818181818181818181818181818000081
:100F200000000000000000000000000000000000C1
:100F30000000000007E00FF01C38181818181818E7
:100F400018181818181818181C380FF007E00000A7
:100F50000000000000000000000000000000000091
:100F6000000000001BC01FE01E701C381818181865
:100F70001818181818181C381E701FE01BC018000D
:100F80001800180018001800000000000000000001
:100F90000000000007D80FF81C7818381818181827
:100FA00018181818181818381C780FF807D80018CF
:100FB00000180018001800180000000000000000D1
:100FC0000000000019F01BF81F0C1C0C180C180076
:100FD0001800180018001800180018001800000069
:100FE0000000000000000000000000000000000001
:100FF000000000000FF01FF8181818001E000780EE
:1010000001F000700018001818181FF00FF0000011
:1010100000000000000000000000000006000600C4
:10102000060006001FF81FF806000600060006006E
:10103000060006000600060C061C03F801F000007E
:1010400000000000000000000000000000000000A0
:101050000000000018181818181818181818181870
:10106000181818181818183818F80FD8079800000A
:101070000000000000000000000000000000000070
:101080000000000030183018301830183838183088
:1010900018300C600C6006C006C00380038000009E
:1010A0000000000000000000000000000000000040
:1010B00000000000300C300C300C300C318C318CC6
:1010C000318C318C318C33CC1FF81E781C300000F1
:1010D0000000000000000000000000000000000010
:1010E0000000000018181C380C30066003C003C054
:1010F000018003C006E00E700C30181818180000AC
:1011000000000000000000000000000000000000DF
:1011100000000000301830183018301838381830F7
:1011200018300C600C6006C007C007800180038087
:10113000030003003E003E0000000000000000002D
:10114000000000001FF81FF800380030006000C0E9
:101150000180030006000C001C001FF81FF80000AF
:101160000000000000000000000000F801F801800D
:10117000018001800180018001801F001F0001802B
:101180000180018001800180018001F800F80000E9
:1011900000000000000000000000018001800180CC
:1011A0000180018001800180018001800180018037
:1011B00001800180018001800180018001800000A8
:1011C000000000000000000000001F001F800180E0
:1011D0000180018001800180018000F800F8018019
:1011E000018001800180018001801F801F000000BC
:1011F00000000000000000000000000000000000EF
:1012000000000000000000000000078C1FFC18F028
:1012100000000000000000000000000000000000CE
:10122000000000000000000000FF20990420840856
:1012300047FF10C108108FFE2102106300040081D7
:10124000FF421841082103FE04208410C217FC0845
:10125000000001C02881A20C8861C60030018E0CFC
:1012600044C11604500E3FC10184001000600260AA
:1012700008622068806200E7FC40C0524924910067
:1012800044924925001023F9C28D8000104FC410EC
:1012900040E0FC800001010204081830204080007A
:1012A0007FD00E03C0D8331C660D81E03805FF00E7
:1012B00019DA10842108427FD00400801002FFA0B8
:1012C0000400801003FF807FC8020020020023FE7C
:1012D0000010010018017FE00180701A064188614A
:1012E0003027FF0080100200FFF00200400801FFDD
:1012F000800801003005FF007F900200400801FFD8
:10130000A00C01803005FF007F8010040100401018
:101310000401004010047FD00600C01803FFE00C59
:1013200001803005FF007FE8018018018017FF0071
:101330001001001001FFE0808081C0021CE7080C52
:101340000E0702FF0000FF81C0C0E0639C6080FFC9
:10135000801004010047E20080000002007FD006F8
:1013600000C7990B21642C7F801001FF807FD0067D
:1013700000C01803007FFC018030060080FFD0060B
:1013800000C01803FFE00C01803007FF007FE80079
:101390008008008008008008008008007FE0FFD0FF
:1013A0000600C0180300600C01803007FF00FFD06A
:1013B0000200400801FE200400801003FF00FFD05F
:1013C0000200400801FE20040080100200007FD0CF
:1013D000060040080103E00C01803005FF00801882
:1013E00001801801801FFF8018018018018010FF04
:1013F000E00020040080100200400801803005FF5A
:101400000080501204418861F82184188110120173
:101410000080080080080080080080080080080024
:10142000FFE0C01F01EC1B3198D8C3860830018053
:101430000C006002C03C06C0CC188308608C198187
:10144000B01E01807FD00600C0180300600C018030
:101450003005FF00FFD00600C01803007FF40080B5
:10146000100200007FC401200900480240120090D1
:10147000048024011FFEFFD00600C01803007FF483
:101480001881901A01807FD00600400800FF800874
:1014900001003005FF00FFF040040040040040045C
:1014A0000040040040040080300600C018030060C3
:1014B0000C01803005FF0040026006300C10081857
:1014C00018081004200660024003C0018040C04C90
:1014D0001C18828210D8431118222204C6C0D0588A
:1014E0000E0A0181C010100060318306301B0070AD
:1014F00001001C01B018C183180C603101041031C7
:1015000080D803800800400200100080FFF0030034
:10151000601C0300600C0380600C00FFF0D24924C3
:101520009300008080402010180C04020100649297
:1015300049258000FFF048FF0040201FFC06030102
:101540007F808040201FE80C06030180C0603FE0E0
:101550007FA008020080200802007F800080402FCA
:10156000F80C06030180C0602FF07F4060301FFC44
:101570000201007F807A083E8208208208207F4096
:101580006030180C0603017F80402017F080402057
:101590001FE80C06030180C06030109FF0040001BA
:1015A00004104104104104107E8040201028343281
:1015B00031F08C4320D020888888888886FFFD02FF
:1015C00006040C08181030206040C0818102FF40E2
:1015D0006030180C06030180807F406030180C06D4
:1015E00003017F00FF406030180C060301FF40201C
:1015F0001008007FC06030180C0603017F80402077
:1016000010087F020408102040807F40601007F01F
:101610000403017F0082083E82082082081E80C0E9
:101620006030180C0603017F004033010818608108
:101630000C0CC03400E0060040C1B0E08858C4641F
:10164000432320B1B0707018380C080060C6306CAD
:101650000700401406C18C60C080C06030180C06C2
:1016600003017F80402017F0FF80C0C0C0818181CE
:1016700080FF80244448444420FFFE42222132223D
:1016800040000001010500000100010B0401F50309
:101690000004020701F504000C0B0F01F515000B07
:1016A0000E0E01F329000E0C1101F43E000E0B1179
:1016B00001F5520001020401F55300030B0501F589
:1016C0005800030B0500F55D0007070800F56400EE
:1016D00006060901F8690001040401FF6A00060119
:1016E0000901FB6B0001010401FF6C00080C0B01F8
:1016F000F478000B0B0E01F58800050B06FFF58F43
:10170000000B0B0E01F59F000C0B0F01F5B0000B49
:101710000B0E01F5C0000B0B0E01F5D0000B0B0EEC
:1017200001F5E0000A0B0BFFF5EE000B0B0E01F5C7
:10173000FE000C0B0F01F50F0101090401F7110167
:10174000010B0401F7130107090A01F71B01080443
:101750000B01FA1F0107090901F727010A0B0C0009
:10176000F535010B0B0E01F545010B0B0E01F5557F
:10177000010B0B0E01F565010C0B0E01F576010B4B
:101780000B0E01F586010B0B0D01F596010B0B0CF1
:1017900001F5A6010B0B0E01F5B6010C0B0F01F5BF
:1017A000C701010B0401F5C9010B0B0E01F5D901AD
:1017B0000B0B0E01F5E9010C0B0D01F5FA010D0BF8
:1017C0001001F50C020B0B0E01F51C020B0B0E01A8
:1017D000F52C020B0B0E01F53C020D0B0F01F54E23
:1017E000020B0B0E01F55E020B0B0E01F56E020CE7
:1017F0000B0F01F57F020B0B0E01F58F02100B1181
:1018000000F5A502130B1400F5C0020D0B0E00F538
:10181000D2020D0B0E00F5E4020C0B0F01F5F502E0
:10182000030B0501F5FA02080C0B01F40603030B88
:101830000500F50B0301010100000C030C010F0171
:10184000000E0303020400F00F0309090C01F71A4C
:1018500003090C0C01F428030A090C01F7340309ED
:101860000C0C01F4420309090C01F74D03060C07A7
:1018700001F45603090D0C01F76503090C0C01F482
:101880007303010C0401F47503061005FDF48103D4
:10189000090C0B01F48F03040C0601F495030F09E6
:1018A0001201F7A60309090C01F7B10309090C019C
:1018B000F7BC03090D0C01F7CB03090D0C01F7DA96
:1018C0000307090901F7E20309090C01F7ED030613
:1018D0000C0701F4F60309090C01F701040D090EC8
:1018E00000F7100411091200F724040B090C00F78B
:1018F0003104090D0C01F7400409090C01F74B04F0
:10190000040B0500F55104010F0401F35304040B0B
:101910000600F528128116207E1000000000003E0F
:101920005B4F5B3E3E6B4F6B3E1C3E7C3E1C183C4F
:101930007E3C181C577D571C1C5E7F5E1C00183CAB
:101940001800FFE7C3E7FF0018241800FFE7DBE7F4
:10195000FF30483A060E2629792926407F050507DB
:10196000407F05253F5A3CE73C5A7F3E1C1C080837
:101970001C1C3E7F14227F22145F5F005F5F0609FC
:101980007F017F006689956A606060606094A2FF55
:10199000A29408047E040810207E201008082A1C47
:1019A00008081C2A08081E101010100C1E0C1E0C13
:1019B00030383E3830060E3E0E06000000000000B3
:1019C000005F00000007000700147F147F14242A22
:1019D0007F2A1223130864623649562050000807F4
:1019E0000300001C2241000041221C002A1C7F1C15
:1019F0002A08083E08080080703000080808080817
:101A0000000060600020100804023E5149453E007D
:101A1000427F400072494949462141494D331814DB
:101A2000127F1027454545393C4A4949314121112A
:101A300009073649494936464949291E000014001C
:101A4000000040340000000814224114141414143F
:101A5000004122140802015909063E415D594E7C9D
:101A60001211127C7F494949363E414141227F4152
:101A700041413E7F494949417F090909013E4141B0
:101A800051737F0808087F00417F41002040413F9B
:101A9000017F081422417F404040407F021C027FAA
:101AA0007F0408107F3E4141413E7F090909063EFF
:101AB0004151215E7F0919294626494949320301CE
:101AC0007F01033F4040403F1F2040201F3F4038E0
:101AD000403F631408146303047804036159494DBB
:101AE00043007F4141410204081020004141417FF1
:101AF0000402010204404040404000030708002067
:101B0000545478407F284444383844444428384466
:101B100044287F385454541800087E090218A4A49D
:101B20009C787F0804047800447D40002040403DBC
:101B3000007F1028440000417F40007C0478047836
:101B40007C080404783844444438FC1824241818C9
:101B5000242418FC7C080404084854545424040425
:101B60003F44243C4040207C1C2040201C3C403012
:101B7000403C44281028444C9090907C4464544C41
:101B8000440008364100000077000000413608009C
:101B900002010204023C2623263C1EA1A161123A46
:101BA0004040207A38545455592155557941225492
:101BB000547842215554784020545579400C1E5297
:101BC000721239555555593954545459395554543C
:101BD000580000457C410002457D420001457C40A3
:101BE0007D1211127DF0282528F07C5455450020E7
:101BF00054547C547C0A097F4932494949323A4459
:101C000044443A324A4848303A4141217A3A4240C3
:101C10002078009DA0A07D3D4242423D3D40404095
:101C20003D3C24FF2424487E4943662B2FFC2F2B68
:101C3000FF0929F620C0887E090320545479410009
:101C400000447D413048484A32384040227A007A88
:101C50000A0A727D0D19317D2629292F2826292966
:101C6000292630484D402038080808080808080888
:101C7000382F10C8ACBA2F102834FA00007B0000AF
:101C800008142A142222142A14085500550055AAB3
:101C900055AA55AAFF55FF55FF000000FF00101080
:101CA00010FF00141414FF001010FF00FF1010F0BC
:101CB00010F0141414FC001414F700FF0000FF00CF
:101CC000FF1414F404FC141417101F10101F101F1D
:101CD0001414141F00101010F0000000001F10104A
:101CE00010101F10101010F010000000FF10101046
:101CF000101010101010FF10000000FF140000FF63
:101D000000FF00001F10170000FC04F4141417104B
:101D1000171414F404F40000FF00F714141414143E
:101D20001414F700F7141414171410101F101F14B4
:101D30001414F4141010F010F000001F101F000015
:101D4000001F14000000FC140000F010F01010FF41
:101D500010FF141414FF141010101F00000000F0E6
:101D600010FFFFFFFFFFF0F0F0F0F0FFFFFF0000BB
:101D7000000000FFFF0F0F0F0F0F3844443844FCE2
:101D80004A4A4A347E02020606027E027E026355F9
:101D90004941633844443C04407E201E2006027EB4
:101DA000020299A5E7A5991C2A492A1C4C720172C6
:101DB0004C304A4D4D303048784830BC625A463D30
:101DC0003E494949007E0101017E2A2A2A2A2A44E5
:101DD000445F444440514A444040444A514000001A
:101DE000FF0103E080FF000008086B6B0836123625
:101DF0002436060F090F0600001818000000101006
:101E0000003040FF0101001F01011E00191D1712C3
:101E1000003C3C3C3C000000000000000100FF00D2
:101E2000320001000001020000070300301004002E
:101E3000000008000202090000000A0000000C0077
:101E400000000D0000000F00000010000000110055
:101E500007001200000013000000FF00C80010007F
:101E6000901611002702FF00320012001A00FF0036
:101E700032001300001829002A00FF003200300051
:101E8000000031000000320000003500060236007C
:101E900008083700070038000102390000003C0044
:101EA00000003D0000002000000021000000500064
:101EB00000005100EF005200000053003F0160009D
:101EC00000A7610003006A0000009000100092006B
:101ED0000000930003009500001197000000980097
:101EE0000000070033010100CB05392C003402CF7C
:101EF0000300C130E803850078EA020000ED0464C5
:101F0000031281F70120C00123C10110C5023E2840
:101F1000C701863601483A0155B1020018B60308D8
:101F20008227F20100260101E00F0F312B0C0E0871
:101F30004EF1370710030E0900E10F000E140311D4
:101F40000731C148080F0C31360F1100FF962900E8
:101F50002C002E89298F2B02E200E401E510E60116
:101F6000E710E870F200EA00EB20EC3CEDC8E9383D
:101F7000F1011B1A1A022461255C183619011F8809
:101F8000FF051F80FF051F90FF051FD4FF051705E4
:101F900036092838FF28283C02000300040005EF1A
:101FA000060007000801093F0100B903FF8357FF3E
:101FB000FAB30400000606B60125B00168CC01059D
:101FC000B10600151C1C83AAC0065050013C1E0817
:101FD000B4070240002A2A0D783A01553601C0356F
:101FE0000100440200021100FF962900FF320100A7
:101FF000E901201100FF64D103007119D00307012A
:10200000083601483A0105C10410100202C006005A
:102010003100000102C50104D2020144C80F046767
:10202000350408062401374003100880002A040004
:102030000000EF2B050000013F8F29002C0001005C
:10204000E00F00071009170B408A4B0A0D0F1516F9
:102050000FE10F001A1B020D05303543020A093249
:10206000360FB101A0B40102C0021715C10141C56C
:1020700003000A80B601023601483A0155E9010021
:10208000F704A9512C821100FF78290011001A00D1
:102090001200213113006C001400494210000008A6
:1020A000FF000A0011001A01FF000A0011001A03C4
:1020B000FF000A0011001A07FF000A0011001A0FA2
:1020C000FF00140011003A0FFF001E00010028015C
:1020D0000200000103003010070012100800030383
:1020E0000B0000110C0000000F000118150020006B
:1020F00007001200FF002800070013000700170068
:1021000011241FBECFE5D8E0DEBFCDBF10E0A0E6B2
:10211000B0E0EAE8F3E502C005900D92AA38B107F5
:10212000D9F711E0AAE8B0E001C01D92A535B107CA
:10213000E1F70E948D110C94C3290C9400001F92AA
:102140000F920FB60F9211248F939F93EF93FF93EB
:1021500082E38093880080919900E82FF0E09CB1A1
:10216000E850FF4F90838F5F809399008091990092
:10217000803129F41092990081E080939B00FF91B7
:10218000EF919F918F910F900FBE0F901F90189518
:10219000F894806487B985E08A95F1F7369A349B84
:1021A000FECF349A789424B135B1C901089524B38F
:1021B0008091810090918200892B282B24BB95B3BC
:1021C000892B85BB2AB38091840090918300892B51
:1021D000282B2ABB9BB3892B8BBB0895EF92FF92D0
:1021E0000F931F93CF93DF937C01C0E0D0E0C70132
:1021F0000C2E02C0969587950A94E2F780FF55C091
:10220000C230D10571F1C330D10538F4209769F09F
:10221000C130D10509F049C011C0C430D10531F138
:10222000C530D10509F041C034C08FE097E262E8C3
:1022300070E00E94101480E690E010C08FEF9FEFD6
:102240000E94C11684E590E00E94AC1683E290E003
:1022500063EC70E00E94101486E690E00E940A1B76
:1022600024C080E090E00E9421271FC080E090E021
:1022700060E070E040EF50E020E431E00E940E2486
:102280008FEF9FEF48E253E260E070E00E9440224F
:102290000CC08AE090E06AE070E044E650E024E69A
:1022A00030E00FE110E00E9497262196C031D10561
:1022B00009F09DCFDF91CF911F910F91FF90EF908B
:1022C00008950F931F93DF93CF93CDB7DEB7299770
:1022D0000FB6F894DEBF0FBECDBFDC01CB018E017F
:1022E0000F5F1F4F29E0F80111922A95E9F7BE010F
:1022F0006E5F7F4F50E00E94922980E28983C8017F
:102300000E940A1B29960FB6F894DEBF0FBECDBF00
:10231000CF91DF911F910F910895BF92CF92DF92DD
:10232000EF92FF920F931F93CF93DF938FEF8BBBAF
:102330008ABB88BB17BA85BB84BB82BB11BA3E9AE5
:1023400087E886B9F8948EB582608EBD1DBC1CBC32
:102350001092A00010929F0085B58A6085BD88E02C
:1023600083BD789410BC89B98AB188618AB9579ABB
:1023700080B5866880BD0E940C220E94B8210E9410
:10238000F02780918A0090918B00A0918C00B091F1
:102390008D00843521E0920720E0A20720E0B207FB
:1023A00049F088529349A040B04021F080918600C6
:1023B000882391F088E08093810080E180938200FF
:1023C00080E88093830080E48093840086E080939B
:1023D0008F0087E08093850083E00E94FC2480E0EA
:1023E00090E00E9421278FEF9FEF0E94212714E0A9
:1023F000B12ECB2CDD2484E090E0B60146E650E01F
:102400002BE430E007E010E0B8E1EB2EB6ECFB2E59
:102410000E94CD1984E090E0B60146E650E02BE43E
:1024200030E0EE24FF240E94711F8DE690E0B6019B
:1024300046E650E02BE430E0A8E1EA2EA6ECFA2EC6
:102440000E94CD198DE690E0B60146E650E02BE4FF
:1024500030E0EE24FF240E94711F86ED90E0B6016B
:1024600046E650E02BE430E0F8E1EF2EF6ECFF2EEC
:102470000E94CD1986ED90E0B60146E650E02BE4CF
:1024800030E0EE24FF240E94711F8CE9C816D104AD
:102490002CF42EE4B20E09F0ACCFA9CF81E090E08D
:1024A0000E94EE108FEF9FEF0E94C1166FEF7FEF3B
:1024B0008FEF9FEF0E94C61684E590E00E94AC1655
:1024C0008FE090E06FE070E00E94101483E790E0EE
:1024D0000E940A1B83E290E06FE070E00E941014FB
:1024E0000E947723A0E0B0E0BC01CD0140E10E9452
:1024F000611180E590E06EE170E00E94101481E0CF
:1025000090E00E94EE1084E690E060E570E04EEB13
:1025100050E02EE130E007E010E0E12CE8EFFE2E85
:102520000E94CD1984E690E060E570E04EEB50E04B
:102530002EE130E0EE24FF240E94711F80E090E045
:102540000E94C11660E078EF80E090E00E94C6161D
:10255000C0E0D0E040E8D42EBB24B39408B607FE18
:1025600057C1D8BE80919E008F5F80939E0080915E
:102570009E00893109F04CC110929E00809192001A
:102580008F5F80939200809190008F5F8093900086
:1025900081508B3008F4D6C0109290008091910049
:1025A0008F5F809391001092F700C0909C0082E0B2
:1025B000C81689F18C1528F021E0C21609F0BAC0BE
:1025C00009C083E0C81609F459C024E0C21609F016
:1025D000B1C087C0C0928E0010929D001092EC0096
:1025E0001092ED001092EE001092EF0024B33091A3
:1025F000810090918200832F80958223892B84BB58
:1026000085B390959823932B95BB2AB33091840082
:102610009091830028C080918F000E94C81084365A
:10262000910508F083C0B0929D00B092F7008091B0
:10263000A1008F5F8093A100823010F0B0929700CC
:1026400024B33091820090918100832F8095822362
:10265000892B84BB85B3932B982B95BB2AB33091E0
:10266000830090918400832F80958223892B8ABBDD
:102670008BB390959823932B9BBB5CC080919D005E
:10268000882309F457C0809185000E94C810A0E0FB
:10269000B0E0DC01992788278093EC009093ED004F
:1026A000A093EE00B093EF0024B33091810090919D
:1026B0008200832F80958223892B84BB85B39095DC
:1026C0009823932B95BB2AB330918400909183007B
:1026D000832F80958223892B8ABB8BB3932B982BD6
:1026E000CBCF80919D008823D9F0E090EC00F09052
:1026F000ED000091EE001091EF0080918F000E949C
:10270000C810A0E0B0E08E299F29A02BB12B8093A8
:10271000EC009093ED00A093EE00B093EF0006C0A4
:1027200010929D00109297001092A10010928E00BE
:102730000E94D7108C2D8F5F80939C00833310F004
:1027400010929C0080919200853608F461C010922E
:10275000920080919100853608F45AC01092910041
:102760008EE690E065E570E00E94101486E790E048
:102770000E940A1B8091EC009091ED00A091EE0068
:10278000B091EF009D0144275527BC01815A90402C
:10279000813D910510F461E010C0CB018357914059
:1027A000853E910510F462E008C069557240673CAF
:1027B000710510F463E001C060E0C9018B5A9040DC
:1027C000853E910510F491E00EC0C90181599140F8
:1027D0008F3E910510F492E006C021583240233B11
:1027E0003105C0F493E06350892F880F890F680F7B
:1027F00070E080E090E04AE00E9461118DE790E097
:102800000E940A1B2196C230D10510F0C0E0D0E032
:1028100084B5A4CE662361F390E0E5CF08950895D2
:1028200090934C0180934B01709346016093450156
:10283000089580914B0190914C010895809145013C
:10284000909146010895882309F481E080934E0118
:1028500008959093540180935301709352016093B3
:102860005101089580934D01089580914701089585
:102870008093480108959C0180913B0190913C0117
:102880002115310541F0892B89F480914501909102
:102890004601069607C0892B49F080914501909129
:1028A00046010697909346018093450130933C0181
:1028B00020933B0108952F923F925F926F927F92F7
:1028C0008F929F92AF92BF92CF92DF92EF92FF9240
:1028D0000F931F93CF93DF935B01EA014901380106
:1028E0008701760140913B0150913C014115510512
:1028F00009F4EBC08A3099F4FB01118210824A5F1F
:102900005F4FFA01849120914E01829FC0011124F2
:1029100028813981280F391F3983288361C18D307F
:1029200009F45EC14C5F5F4FFA0164914F5F5F4FE6
:10293000FA01949145505040861708F451C19817F8
:1029400008F44EC19A012E5F3F4FF901A591B49151
:10295000282F30E0261B3109C901F3E0880F991FA9
:10296000FA95E1F7821B930BA80FB91F1296FD0190
:10297000D4901196FD01C4901196FD0154901196CA
:10298000FD0164911196FD01749180914D018823A0
:1029900071F1262F332727FD30952D0D311D8091A4
:1029A0004E0190E0FC012E9FC0012F9F900D3E9F95
:1029B000900D1124F50120813181820F931F209108
:1029C000490130914A01281739078CF4118210828D
:1029D0004A5F5F4FFA01849120914E01829FC001AE
:1029E000112428813981280F391F39832883809148
:1029F0004E01A82FB0E0862F992787FD90958A9FDA
:102A000010018B9F300C9A9F300C1124F5018081AE
:102A10009181280E391E872F992787FD90958A9FCF
:102A2000B0018B9F700D9A9F700D11248881998140
:102A3000680F791F8D2D90E08A9FA0018B9F500D0C
:102A40009A9F500D112441505040420D531D8C2D22
:102A500090E08A9F90018B9F300D9A9F300D11243A
:102A600021503040260F371FF401808191812816B4
:102A7000390614F431822082F30180819181681734
:102A8000790714F471836083F80180819181841740
:102A9000950714F451834083F70180819181821757
:102AA000930714F431832083852D90E08A9F900151
:102AB0008B9F300D9A9F300D1124F50180819181FB
:102AC000820F931F918380838BC08A3091F4FB0126
:102AD0001182108220914E0130E0E3E0220F331F7B
:102AE000EA95E1F788819981820F931F9983888302
:102AF00077C08D3009F474C080914D01882311F1A5
:102B000080914E0126E0829FC0011124FB012081AB
:102B10003181820F931F2091490130914A0128177A
:102B2000390784F41182108220914E0130E073E065
:102B3000220F331F7A95E1F788819981820F931FC5
:102B40009983888320914E0130E0A901440F551FDD
:102B5000420F531F440F551F41505040F5018081D3
:102B60009181480F591F83E0220F331F8A95E1F7A7
:102B70002150304088819981280F391FF8018081C8
:102B800091818417950714F451834083F701808164
:102B900091818217930714F431832083F5012081FA
:102BA0003181F401808191812817390714F4318330
:102BB000208328813981F301808191812817390789
:102BC00014F43183208380914E0126E0829FC0015E
:102BD0001124F50120813181280F391F3183208391
:102BE000DF91CF911F910F91FF90EF90DF90CF90E9
:102BF000BF90AF909F908F907F906F905F903F902D
:102C00002F9008952F923F924F925F926F927F92F2
:102C10008F929F92AF92BF92CF92DF92EF92FF92EC
:102C20000F931F93DF93CF93CDB7DEB760970FB6A7
:102C3000F894DEBF0FBECDBF4C017A8769875C87F1
:102C40004B8759011E870D873701D88ACF86D90156
:102C50006D937C93F80151834083D6011D921C92A1
:102C6000F701118210828091490190914A019A8363
:102C7000898380914F01909150019C838B838FEFCA
:102C80009FEF9E838D8398878F83B7E02B2E312C07
:102C90002C0E3D1E2E010894411C511C12C0BE0179
:102CA000675F7F4FAE01455F5F4F92018E010D5F01
:102CB0001F4FA5E0EA2EF12CEC0EFD1E61010E94D3
:102CC0005B14D4018D914D01882349F729813A8104
:102CD0008D819E81821793074CF0F501318320830B
:102CE0000196821B930BD3018D939C932B813C8186
:102CF0008F819885821793075CF0ED85FE8531837F
:102D000020830196821B930BAF85B8898D939C938A
:102D100060960FB6F894DEBF0FBECDBFCF91DF91A6
:102D20001F910F91FF90EF90DF90CF90BF90AF90E9
:102D30009F908F907F906F905F904F903F902F90DB
:102D400008958091490190914A01089580914F0121
:102D50009091500108950895FC0190934001809353
:102D60003F01849180934101319684918093420187
:102D700031968491809343013196E491E09344012C
:102D80000895909338018093390108959B01AC0117
:102D90002F3F8FEF38078FEF48078FEF580721F449
:102DA00081E080933E010895BB27A52F942F832FA8
:102DB00080933D0120933A0110923E0108950E94B4
:102DC000352708952F923F924F925F926F927F9294
:102DD0008F929F92AF92BF92CF92DF92EF92FF922B
:102DE0000F931F93DF93CF93CDB7DEB72A970FB61C
:102DF000F894DEBF0FBECDBF2C017C836B833701FF
:102E0000E1E0EE2EF12CE41AF50ACA01880F991FB1
:102E100066277727681B790B7A8369838B809C8070
:102E200008948108910863E0A62EB12CA00EB11E73
:102E30005A87498731E0232E312CCC24DD2430E021
:102E4000C901817090709E838D830F5F1F4FF901C0
:102E5000E270F070F887EF835DC0F7FC0EC0298543
:102E60003A85215030403A87298769817A816E5F9F
:102E70007F4F7A836983E60EF71E0894C11CD11C2C
:102E800082E090E0280E391EE20CF31CED81FE81F9
:102E9000EF2BD1F06B817C8129853A85621B730B06
:102EA000A901440F551F400F511FC601840D951DE8
:102EB00093010E94352789859A85840D951DB4015B
:102EC000A50193010E9435276F817885672BD9F082
:102ED0006B817C8189859A85681B790BAC01440FD5
:102EE000551F400F511FC2018C199D0993010E946B
:102EF0003527C201E985FA858E1B9F0BB401A50118
:102F000093010E94352708948108910822E030E05F
:102F1000A20EB31E69857A85C616D7060CF49DCF1E
:102F20002A960FB6F894DEBF0FBECDBFCF91DF91CA
:102F30001F910F91FF90EF90DF90CF90BF90AF90D7
:102F40009F908F907F906F905F904F903F902F90C9
:102F50000895AF92BF92CF92DF92EF92FF920F93BC
:102F60001F936C015B018A017901641B750B440F8F
:102F7000551F4F5F5F4F0E943527C601B501A8015D
:102F800023E000E010E00E94E2161F910F91FF90F5
:102F9000EF90DF90CF90BF90AF9008950E9491275F
:102FA00008952F923F924F925F926F927F928F92ED
:102FB0009F92AF92BF92CF92DF92EF92FF920F93C8
:102FC0001F93DF93CF93CDB7DEB7E2970FB6F89498
:102FD000DEBF0FBECDBF9A8789877C876B871A01BA
:102FE0005901FE86ED86D88ACF86261737073CF42E
:102FF00029843A845A8749875B013C872B872D8532
:103000003E852A153B0544F4C80181011C018D85CC
:103010009E85BE86AD865C014B855C85A416B50693
:103020004CF4C10129843A849A878987C5015A01E1
:103030009C878B876B857C858D859E856817790736
:1030400039F5A985BA852A163B061CF4C101AD01E4
:103050000BC0E985FA85E215F3051CF4CF01A10147
:1030600003C089859A85AC010817190714F4C801B3
:1030700004C0401751070CF4A8014F5F5F4F481B75
:10308000590B6B857C852F8538890E9491272EC12D
:10309000910149855A85241B350BC5016B857C85BB
:1030A000861B970BD801A41BB50BB887AF83ED85A2
:1030B000FE85E61BF70BFE83ED83A8014219530939
:1030C0005C834B836D857E856A197B097A8369836E
:1030D000AD85BE85AA16BB0611F4650104C0650165
:1030E0000894C108D1084B845C846624772443018A
:1030F000EE24FF248701AC01662757FD6095762FEB
:1031000049A35AA36BA37CA36D817E81882777FD99
:103110008095982F6DA37EA38FA398A7C901AA2796
:1031200097FDA095BA2F89A79AA7ABA7BCA72F8117
:103130003885442737FD4095542F2DA73EA74FA72C
:1031400058AB43C0C401B30129A13AA14BA15CA172
:103150000E94552969857A85620F731F7AAB69AB26
:10316000C801B7012DA13EA14FA158A50E94552924
:1031700049855A85420F531F89A99AA948175907AB
:103180002CF4CA0149A95AA99AAB89AB69A57AA5B9
:103190008BA59CA5660E771E881E991E8DA59EA5E3
:1031A000AFA5B8A9E80EF91E0A1F1B1F4F5F5F4F9E
:1031B000A9A9BAA94A1B5B0BCD01B2012F85388999
:1031C0000E9491270894411C511CC414D5040CF092
:1031D000B9CFC2018A199B09FC012B813C81E29F76
:1031E000C001E39F900DF29F900D11244C01AA2481
:1031F00097FCA094BA2CC2014B855C85841B950B6F
:10320000BC01AF81B8856A9FC0016B9F900D7A9F0A
:10321000900D11246C01EE24D7FCE094FE2C298142
:103220003A81442737FD4095542F298B3A8B4B8B9D
:103230005C8B4D815E81662757FD6095762F4D8BA7
:103240005E8B6F8B788F6B817C81882777FD809573
:10325000982F698F7A8F8B8F9C8FCD01AA2797FD2E
:10326000A095BA2F8D8F9E8FAF8FB8A33AC0C5019E
:10327000B40129893A894B895C890E9455298101C9
:10328000020F131FC701B6012D893E894F89588D42
:103290000E94552949855A85420F531F40175107EF
:1032A0001CF4CA01A8018C01698D7A8D8B8D9C8DCF
:1032B000860E971EA81EB91E8D8D9E8DAF8DB8A14E
:1032C000C80ED91EEA1EFB1E4F5F5F4F401B510BFD
:1032D000C801B2012F8538890E9491270894411CAA
:1032E000511CAD85BE85A415B5050CF6E2960FB64A
:1032F000F894DEBF0FBECDBFCF91DF911F910F912C
:10330000FF90EF90DF90CF90BF90AF909F908F9005
:103310007F906F905F904F903F902F9008958F9285
:103320009F92AF92BF92CF92DF92EF92FF920F9354
:103330001F937C016B015A01490198010E9491275A
:10334000B60161507040680D791DC701A501980153
:103350000E949127C701B601A40198010E94352758
:103360000894E108F108C7018A0D9B1DB601A4016C
:1033700098010E9435271F910F91FF90EF90DF90E9
:10338000CF90BF90AF909F908F9008950F931F9311
:103390000E9497261F910F9108952F923F924F926E
:1033A0005F926F927F928F929F92AF92BF92CF92D5
:1033B000DF92EF92FF920F931F93CF93DF935C0105
:1033C0002B011A01690148013701E801C80FD91F13
:1033D0007801EE0CFF1CF094E194F108F394A7013E
:1033E000420D531DCE0183010E949726480C591CA3
:1033F0000894C108D108CE0CDF1C0894A108B108BC
:10340000A20CB31CC50188199909B201A40121E0DD
:10341000860173010E94E216CE01B201A40122E0EE
:103420000E94E216DF91CF911F910F91FF90EF90D4
:10343000DF90CF90BF90AF909F908F907F906F90D4
:103440005F904F903F902F9008950E94F625089529
:103450002F923F924F925F926F927F928F929F92A4
:10346000AF92BF92CF92DF92EF92FF920F931F9392
:10347000DF93CF9300D000D000D0CDB7DEB77A83F2
:1034800069835C834B83209141012695269526957F
:1034900090914201299F9001112490E040914301B5
:1034A000841B9109289F7001299FF00C389FF00C14
:1034B000112424E030E0E20EF31EAA24BB247BC0DA
:1034C000C90101978C01B3E0000F111FBA95E1F714
:1034D00049815A81040F151F6C01CE0CDF1C1701A6
:1034E00008942108310859C0E0913F01F091400152
:1034F000EC0DFD1DE4911E821D824E2E5524C2014D
:103500000D8002C0959587950A94E2F780FF16C05A
:1035100060914101669566956695C50170E00E94CF
:103520002E298B819C81680F791F90903801882407
:103530004091390150E04829592919C080913E0134
:103540008823E1F460914101669566956695C50111
:1035500070E00E942E292B813C81620F731F7090B6
:103560003D01662440913A0150E046295729C8019F
:10357000ED81FE818E1B9F0B0E94F6252D813E81E1
:103580002F5F3F4F3E832D832830310509F0B7CFA1
:10359000085010400894C108D108C214D30409F09F
:1035A000A3CF8091410186958695869590E0E80E9F
:1035B000F91EA80EB91E80914101869586958695C3
:1035C000282F30E08091420190E0AC01249FC0019F
:1035D000259F900D349F900D1124A816B90608F46C
:1035E0006FCF26960FB6F894DEBF0FBECDBFCF913A
:1035F000DF911F910F91FF90EF90DF90CF90BF90E0
:10360000AF909F908F907F906F905F904F903F9082
:103610002F900895AF92BF92CF92DF92EF92FF92D8
:103620000F931F93CF93DF936C01C0914B01D09107
:103630004C01A0904501B0904601DC010D900020A6
:10364000E9F77D010894E108F108E81AF90AB7E200
:10365000CF30DB0789F48091410190E0FC01EE9DC1
:10366000C001EF9D900DFE9D900D1124C091490168
:10367000D0914A01C81BD90BF7E2CE30DF07A9F47D
:103680008091410190E08E9D90018F9D300D9E9D17
:10369000300D11248091490190914A01821B930BB6
:1036A00062E070E00E944229EB0100E010E014C0EB
:1036B0008091410190E0089FB001099F700D189F13
:1036C000700D11246C0F7D1FD6018D916D01A50128
:1036D0000E94281A0F5F1F4F0E151F054CF3809193
:1036E000410190E0FC01EE9DC001EF9D900DFE9D1B
:1036F000900D11248C0F9D1F90934C0180934B01D2
:10370000DF91CF911F910F91FF90EF90DF90CF90BD
:10371000BF90AF9008952F923F924F925F926F9219
:103720007F928F929F92AF92BF92CF92DF92EF9251
:10373000FF920F931F93DF93CF93CDB7DEB76B97B5
:103740000FB6F894DEBF0FBECDBF4C017A8B698BEC
:103750003C8B2B8B1801ED8A60913B0170913C01F1
:103760006115710509F0BFC08091490190914A012E
:10377000881699060CF074C180914F019091500108
:1037800029893A89281739070CF06AC16E2D70E033
:103790007B8F6A8FCB01880F991F860F971F880F29
:1037A000991F880D991D181619060CF059C103E0D0
:1037B000660F771F0A95E1F7788B6F87CB01820F31
:1037C000931F181619060CF04BC1809148018823ED
:1037D00019F4403B08F04F5F85E0489F50011124E9
:1037E0008AE199E1A80EB91E240134011E86F50173
:1037F00084914E8A5F8AC988DA888D8776011C8613
:10380000FD85F0FF11C02D89213029F4C301B601D7
:103810004B895C8914C08E899F89B7014A8D5B8D65
:103820009A010B891C8915C06B897C89261637067D
:1038300091F07D89713031F4C301B601A1010E947C
:10384000F62509C08E899F89B7014A8D5B8D9A0143
:1038500081010E9497268C858F5F8C87AA8DBB8DF6
:10386000EA0EFB1E0894C11CD11C883021F0BD85D6
:10387000B695BD87C5CFEE85EF5FEE870894A11C96
:10388000B11C2A8D3B8D420E531E0894611C711C85
:10389000E53009F0ACCF6B897C892616370609F430
:1038A000DFC07D89713051F4C401059669897A8938
:1038B00048E050E091010E943527D2C08A8D9B8D4F
:1038C000880F991F880F991FAA8DBB8D8A0F9B1F88
:1038D000880D991D69897A89AD012F853889810103
:1038E0000E949726BDC06C5F7F4FFB0124916450FE
:1038F0007040FB01329685919491421BE7E04E9F08
:1039000080011124080F191FFB01259134913C837C
:103910002B83F801259134910E5F1F4FF801F4912C
:10392000FA830F5F1F4FF801F491F9830E5F1F4F69
:10393000F80154910F5F1F4FF8014491FD89F23057
:1039400028F480E090E01E821D820AC0852F99270E
:1039500087FD9095642F772767FD70957E836D8333
:103960003B872A87198618861F827D89E72EFF24C8
:10397000252E332427FC3094280C391C8E9D2001E1
:103980008F9D500C9E9D500C1124480C591C642E88
:10399000772467FC709489899A89680E791E41C0E2
:1039A000892F90E087709070892B59F4EB81FC810E
:1039B000AA85BB85EA0FFB1F1196BB87AA87B49126
:1039C000B887E885E7FF13C0FD89F13041F4C501F0
:1039D000688D798D4B895C890E94F62508C0C601E7
:1039E000B401A70197010B891C890E94972628859D
:1039F000220F28876A8D7B8D6F5F7F4F7B8F6A8F49
:103A00000894A11CB11CCE0CDF1C8A8D9F81980FDD
:103A10007A81871728F28F81870F8F8399859F5F1F
:103A20009987A985B981AB17D8F42A2F30E08D8109
:103A30009E81820F931F8E9D40018F9D900C9E9DB5
:103A4000900C1124E989FA898E0E9F1E51016201A2
:103A50001B8E1A8EB301620F731F798F688FD5CFBB
:103A60006B960FB6F894DEBF0FBECDBFCF91DF913E
:103A70001F910F91FF90EF90DF90CF90BF90AF908C
:103A80009F908F907F906F905F904F903F902F907E
:103A90000895EF920F931F93CF93DF93482FA09138
:103AA0003B01B0913C01109709F070C08A30B9F425
:103AB00010924C0110924B0120914E0130E003E036
:103AC000220F331F0A95E1F780914501909146013D
:103AD000820F931F909346018093450107C18D305B
:103AE00009F404C180914D01882359F180914E0160
:103AF000682F70E0CB01880F991F860F971F880FE2
:103B0000991F20914B0130914C01820F931F2091FE
:103B1000490130914A01281739079CF410924C0151
:103B200010924B01A3E0660F771FAA95E1F78091F1
:103B3000450190914601860F971F9093460180930F
:103B400045016091450170914601209153013091EA
:103B50005401009151011091520180914B019091BB
:103B60004C01E0904E010E948B1B20914E0186E09B
:103B7000289F9001112480914B0190914C01820F5C
:103B8000931F90934C0180934B01B0C08A30B9F4DD
:103B900010924C0110924B011696FD0184912091D8
:103BA0004E01829FC00111242091450130914601B0
:103BB000280F391F309346012093450197C08D305F
:103BC00009F494C01496FD0154911497851708F4D4
:103BD0008DC01596FD0184911597841708F486C051
:103BE000CD010296FC01C591D491242F30E0251B14
:103BF0003109C901F3E0880F991FFA95E1F7821B9B
:103C0000930BC80FD91F2296FE0124912196FE0125
:103C100084912397222309F457C0882309F454C0C0
:103C20002596FE019491259780914D018823C1F13D
:103C300080914E01682F70E0892F992787FD90951C
:103C4000820F911D9C01269FC001279F900D369FDA
:103C5000900D112420914B0130914C01820F931F44
:103C60002091490130914A0128173907CCF410926C
:103C70004C0110924B011696FD01849190E0869FB5
:103C80009001879F300D969F300D11248091450142
:103C900090914601820F931F9093460180934501B6
:103CA000609145017091460120915301309154017A
:103CB000009151011091520180914B0190914C0162
:103CC000E0904E010E948B1B2496FE01849120916E
:103CD0004E01829FC001112420914B0130914C0173
:103CE000280F391F30934C0120934B01DF91CF9166
:103CF0001F910F91EF9008952F923F924F925F92F4
:103D00006F927F928F929F92AF92BF92CF92DF92EB
:103D1000EF92FF920F931F93DF93CF93CDB7DEB750
:103D200060970FB6F894DEBF0FBECDBF5C016B018C
:103D300061E0E62EF12CE41AF50ACA01880F991FFA
:103D400066277727681B790B7C836B8316010894A1
:103D500021083108250108944108510836010894CA
:103D6000611C711C45010894811C911C588B4F8764
:103D700081E090E09E838D831A82198230E0F90100
:103D8000E470F070F887EF83B901627070707A8721
:103D90006987C901887090709C878B87F901E170F1
:103DA000F070FE87ED877CC0F7FC0EC02F85388948
:103DB00021503040388B2F876B817C816E5F7F4F25
:103DC0007C836B83E60EF71E89819A8101969A8324
:103DD0008983ED81FE813296FE83ED83EE0EFF1E18
:103DE0002F813885232B81F06F8578896C0D7D1D9F
:103DF000C401A8010E94F6258F8598898A0D9B1D14
:103E0000B301A8010E94F62569857A85672B89F0A0
:103E1000B6018F859889681B790BC401A8010E949F
:103E2000F6258F8598898A0D9B1DB101A8010E94F6
:103E3000F625EB85FC85EF2B89F0C5012F853889A8
:103E4000821B930BB301A8010E94F6256F85788928
:103E50006C0D7D1DC201A8010E94F6256D857E8531
:103E6000672B91F0C501EF85F8898E1B9F0BB1017F
:103E7000A8010E94F625B6012F853889621B730BB5
:103E8000C201A8010E94F62508942108310808946F
:103E9000410851080894611C711C0894811C911CF4
:103EA00069817A818F859889681779070CF47CCFAE
:103EB00060960FB6F894DEBF0FBECDBFCF91DF91F5
:103EC0001F910F91FF90EF90DF90CF90BF90AF9038
:103ED0009F908F907F906F905F904F903F902F902A
:103EE00008952F923F924F925F926F927F928F929E
:103EF0009F92AF92BF92CF92DF92EF92FF920F9379
:103F00001F93DF93CF9300D000D0CDB7DEB71C0155
:103F10003B016A013A8329834801C801820D931D40
:103F20009C838B83000F111F109501951F4F280153
:103F3000440E551EB301A20197010E949127A9804A
:103F4000BA80A60CB71C0894A108B1088B819C818B
:103F5000B501A20197010E949127680C791CE981A3
:103F6000FA810E0F1F1FC101B301A80197010E9422
:103F70003527C20CD31C0894C108D108C601B3016F
:103F8000A80197010E9435278B819C81B301A40170
:103F900021E087010E947C1EC818D908C601B30120
:103FA000A40122E00E947C1EA818B908C601B50130
:103FB000A40124E00E947C1E8B819C81B501A40198
:103FC00028E00E947C1E0F900F900F900F90CF91D1
:103FD000DF911F910F91FF90EF90DF90CF90BF90F6
:103FE000AF909F908F907F906F905F904F903F9099
:103FF0002F9008952F923F924F925F926F927F92EF
:104000008F929F92AF92BF92CF92DF92EF92FF92E8
:104010000F931F93DF93CF9300D000D000D0CDB784
:10402000DEB72C013B018A013E832D83F1E02F2E68
:10403000312C241A350ACA01880F991F22273327E9
:10404000281B390B3A832983BA01660D771DC201FB
:104050004D815E810E94F625B301601B710BC20188
:104060004D815E810E94F625C801840D951DB30126
:104070004D815E810E94F625C201801B910BB30128
:104080004D815E810E94F625480181E090E09C838D
:104090008B83AA24BB245FC037FC0AC00894810824
:1040A0009108E981FA813296FA83E9832E0E3F1E48
:1040B0000894A11CB11C2B813C812E5F3F4F3C8397
:1040C0002B83220E331E6501C40CD51C8401060D02
:1040D000171DC601B8014D815E810E94F62572014F
:1040E000EA18FB08C701B8014D815E810E94F625E0
:1040F000830108191909C601B8014D815E810E942A
:10410000F625C701B8014D815E810E94F625640144
:10411000C40CD51C8501060D171DC601B8014D81C3
:104120005E810E94F6257201E818F908C701B801FE
:104130004D815E810E94F62583010A191B09C60183
:10414000B8014D815E810E94F625C701B8014D81FD
:104150005E810E94F625A814B9040CF49DCF269622
:104160000FB6F894DEBF0FBECDBFCF91DF911F9188
:104170000F91FF90EF90DF90CF90BF90AF909F9006
:104180008F907F906F905F904F903F902F90089509
:104190002F923F924F925F926F927F928F929F9257
:1041A000AF92BF92CF92DF92EF92FF920F931F9345
:1041B000CF93DF937C016B015A01A90118014424BC
:1041C0005524261B370B37FF03C0309521953F4FF1
:1041D000C5018E199F0997FF03C0909581959F4F48
:1041E000821793074CF4B1E04B2E512CC6016701A6
:1041F0007C01CA01A5015C01AE14BF0434F4C50101
:1042000057017C01CA01A6016C0135016E187F08B7
:104210008A010C191D0917FF03C0109501951F4F46
:10422000C416D50624F088248A94982C03C0A1E0F3
:104230008A2E912CC30162E070E00E944229EB01BA
:1042400016C04114510419F0C601B70102C0C701DC
:10425000B601A1010E94F625C01BD10BD7FF04C0F7
:10426000C80CD91CC60DD71D0894E11CF11CAE1456
:10427000BF043CF7DF91CF911F910F91FF90EF901A
:10428000DF90CF90BF90AF909F908F907F906F9076
:104290005F904F903F902F9008950F931F93DC01F4
:1042A000F9018417950771F42617370714F4FB01F9
:1042B000B9013196E61BF70BCD01AF0198010E94C1
:1042C000352714C06217730779F4481759071CF48F
:1042D000CA01AD01DC014F5F5F4F4A1B5B0BCD0193
:1042E00098010E94912702C00E94C8201F910F913F
:1042F00008952F923F924F925F926F927F928F928A
:104300009F92AF92BF92CF92DF92EF92FF920F9364
:104310001F932C011B015A014901380186010E949B
:104320004D21C501B401A30197010E944D21C30194
:10433000B701A20191010E944D211F910F91FF90A1
:10434000EF90DF90CF90BF90AF909F908F907F9035
:104350006F905F904F903F902F90089520E931E04B
:1043600004C0F9013197F1F701970097D1F708954B
:1043700084B38C6784BB85B38C6785BB8AB38FEFAE
:104380008ABB8BBB8ABB1092470110924C011092E2
:104390004B01109246011092450181E080934E013D
:1043A0008FEF9FEF909354018093530180EF90E043
:1043B00090934A018093490180E491E090935001E9
:1043C00080934F010895AB988BBBAC98AC9AAB9A95
:1043D0006BBBAC98AC9A0895AB989BBBAC98AC9A6D
:1043E0008BBBAC98AC9AAB9A7BBBAC98AC9A6BBBD2
:1043F000AC98AC9A0895AB988BBBAC98AC9AAB9A3E
:104400005BBBAC98AC9AAB986BBBAC98AC9AAB9AD4
:104410004BBBAC98AC9A0895AA9AAC9AAD9AAE9858
:1044200080E991E0FC013197F1F70197F1F7AE9A3D
:10443000AA98AB981BBAAC98AC9AAC98AC9AAC98CA
:10444000AC9AAC98AC9AAA9A089580918E00882371
:10445000B1F4AA984091490150914A01415050400D
:1044600084E065E00E94FB2140914F015091500192
:104470004150504088E069E00E94FB21AA9A0895CB
:10448000F82FE92F80918E00882309F078C0AA9830
:10449000AB9880918900823041F0882321F41BBAC7
:1044A000AC98AC9A04C0833011F48CE201C082E273
:1044B0008BBBAC98AC9AAB9AEBBBAC98AC9AFBBB01
:1044C000AC98AC9A4150504060407040DB01CA014A
:1044D00026E0B695A795979587952A95D1F7EF177A
:1044E000B1F09C013DC020E1AC98AC9AAC98AC9A7C
:1044F000AC98AC9AAC98AC9AAC98AC9AAC98AC9A94
:10450000AC98AC9AAC98AC9A215071F7019700978F
:1045100051F74F7305C0AC98AC9AAC98AC9A415027
:104520004423C9F72BC080E1EBBBAC98AC9AFBBB32
:10453000AC98AC9AEBBBAC98AC9AFBBBAC98AC9A81
:10454000EBBBAC98AC9AFBBBAC98AC9AEBBBAC9811
:10455000AC9AFBBBAC98AC9A815031F721503040FB
:104560002115310501F74F7307C0EBBBAC98AC9A2E
:10457000FBBBAC98AC9A41504423B9F7AA9A089572
:10458000FC0180918E00882319F5AA98442389F0B4
:10459000AB9880918900882319F41BBAAC98AC9A27
:1045A0008250823010F48CE201C082E28BBBAC9866
:1045B000AC9AAB9A0AC09081818132968BBBAC9841
:1045C000AC9A9BBBAC98AC9A61506623A1F7AA9AAF
:1045D0000895AA98AB988BBBAC98AC9A1ABAAB9AD0
:1045E00080918E00882329F020E030E040E050E008
:1045F00043C0AD9800C000C000C0000029B3AD9A10
:1046000030E040E050E0542F432F322F2227AD9866
:1046100000C000C000C0000089B3AD9A90E0A0E0E7
:10462000B0E0282B392B4A2B5B2B542F432F322FF2
:104630002227AD9800C000C000C0000089B3AD9A29
:1046400090E0A0E0B0E0282B392B4A2B5B2B542FB5
:10465000432F322F2227AD9800C000C000C00000B9
:1046600089B3AD9A90E0A0E0B0E0282B392B4A2B1B
:104670005B2BAA9A8FEF8ABBB901CA01089570E03B
:104680006C7F7070A3E0660F771FAA95E1F74695DF
:104690004695469550E0642B752B90E0887F90708E
:1046A000982F8827682B792BCB010895AA98AB986F
:1046B0008BBBAC98AC9AAB9A25E0822F8A95F1F728
:1046C000CB01AA27BB278BBBAC98AC9A822F8A95CB
:1046D000F1F7BB27A72F962F852F8BBBAC98AC9AF1
:1046E0002A95F1F74BBBAC98AC9AAA9A089584E04E
:1046F0000E94E922605070488040904001F589EBAB
:1047000047E553E86FEF70E00E9456232CE231E05A
:1047100040E951E003C0CA010197F1F72150304050
:104720008FEF2F3F3807B9F780ED0E94E9226050E4
:1047300070408949904019F427E533E842C083ED81
:104740000E94E9229B0183E92134380709F439C02A
:1047500084E92838380709F434C08FEE0E94E92232
:104760009B0183E92732380761F1AA98AB981BBAFD
:10477000AC98AC9AAC98AC9A1ABAAB9A85E08A9588
:10478000F1F780918E00882319F020E030E019C005
:10479000AD9800C000C000C0000039B3AD9A85E0FC
:1047A0008A95F1F7AD9800C000C000C0000029B3A1
:1047B000AD9A8FEF8ABBAA9A932F80E030E0282B26
:1047C000392BC9010895AA98AB988BBBAC98AC9AC9
:1047D000AB9A25E0822F8A95F1F7872F9927AA2790
:1047E000BB278BBBAC98AC9A822F8A95F1F7CB0193
:1047F000AA27BB278BBBAC98AC9A822F8A95F1F77E
:10480000BB27A72F962F852F8BBBAC98AC9A2A95E8
:10481000F1F74BBBAC98AC9AAA9A08958F929F92ED
:10482000AF92BF92CF92DF92EF92FF920F931F93BE
:10483000CF93DF93FC017B016A01590180918E00C7
:10484000882309F0CCC0AA9840918900442319F02C
:10485000443009F07CC0809147018230B1F0833050
:1048600031F1813029F0E60185014F0167012BC04C
:104870008FEE90E0EC01CE19DF097F0186014E0139
:104880006F01FC01EA19FB091EC02FEE30E0E901BF
:10489000CE1BDF0B8FE391E08C010E191F09F9018C
:1048A000EC19FD097C01EA18FB084E010BC08FE3EF
:1048B00091E08C010E1B1F0BF701E50147017C0104
:1048C000EC18FD086801443019F587E390E0BF015A
:1048D0000E94EC2186E390E0BE010E94EC2189E376
:1048E00090E0B7010E94EC2188E390E0B8010E94BB
:1048F000EC2180E290E0B4010E94EC2181E290E0A2
:10490000B6010E94EC2182E260E00E94E32166C0D1
:1049100080E590E0BF010E94EC2181E590E0BE01BE
:104920000E94EC2182E590E0B7010E94EC2183E532
:1049300090E0B8010E94EC2180E290E0B4010E9476
:10494000EC2181E290E0B6010E94EC2147C0842F67
:104950008250823020F0453011F0463049F5CF01C9
:10496000AA2797FDA095BA2FDC0199278827A601D1
:10497000662757FD6095762F482B592B6A2B7B2B8A
:104980008AE20E94E323C701AA2797FDA095BA2FC8
:10499000DC0199278827A501662757FD6095762FAA
:1049A000482B592B6A2B7B2B8BE20E94E32316C0EA
:1049B0004130A1F482E063E0AF010E94FB2186E078
:1049C00067E0A7010E94FB2184E065E0A6010E9448
:1049D000FB2188E069E0A5010E94FB21AA9ADF91F2
:1049E000CF911F910F91FF90EF90DF90CF90BF90EC
:1049F000AF909F908F900895982F80918E0088237C
:104A000009F0F3C0292F237020934701213081F052
:104A1000213028F0223019F02330B1F409C080EFA2
:104A200090E090934A018093490180E491E008C0AE
:104A300080E491E090934A018093490180EF90E0F7
:104A40009093500180934F01AA9880918900882308
:104A500011F0843039F5223051F0233059F02130F3
:104A600019F468E270E108C060E370E105C060E03D
:104A700070E102C068E170E183E090E00E94EC2107
:104A80004091490150914A014150504020914F01BD
:104A9000309150012150304080E090E060E070E0C3
:104AA0000E940E2480918900823049F5809147014F
:104AB000823029F0833049F0813021F409C068E464
:104AC00070E008C068E870E005C068E270E002C00D
:104AD00068EE70E086E30E94E32140914901509125
:104AE0004A014150504020914F01309150012150D6
:104AF000304080E090E060E070E00E940E24809101
:104B000089008130A1F480914701823041F08330E7
:104B100041F0813011F460E605C060E003C060EC54
:104B200001C060EA86E10E94E3210E942522809173
:104B30008900833041F580914701813069F08130EF
:104B400040F0833019F460E670E008C060E070E087
:104B500005C060EC70E002C060EA70E086E30E948D
:104B6000E3214091490150914A0141505040209128
:104B70004F01309150012150304080E090E060E0E2
:104B800070E00E940E2480918900853071F580913B
:104B90004701813099F0813070F0823019F0833014
:104BA00021F406C068E870E00BC060E070E008C067
:104BB00068EE70E005C06AE070E002C068E270E094
:104BC00086E30E94E3214091490150914A014150FE
:104BD000504020914F01309150012150304080E0F1
:104BE00090E060E070E00E940E240895EF92FF9242
:104BF0000F931F93CF93DF93EC018B017A01809188
:104C00008E00882309F08CC0D7FD8AC077FD88C04C
:104C10004091490150914A01C417D5070CF080C05A
:104C200020914F0130915001621773070CF078C04A
:104C3000AA9890918900992311F0943091F5809170
:104C40004701823059F08330B1F08130D1F48FEEDA
:104C500090E0801B910B8E01EC0113C08FEE90E071
:104C60009C012C1B3D0BE9018FE391E09C01201B73
:104C7000310B890106C08FE391E08C1B9D0BE8018D
:104C80008C0180E290E0BE010E94EC2181E290E084
:104C9000B8010E94EC2182E290E0B7010E94EC2171
:104CA0003EC09130F9F480914701823041F0833069
:104CB00041F0813011F460E605C060E003C060ECB3
:104CC00001C060EA86E10E94E32182E063E0AE0178
:104CD0000E94FB2186E067E0A8010E94FB21AB98BF
:104CE00082E213C0892F8250823020F0953011F07B
:104CF0009630A9F44150504021503040CE01B801C7
:104D00000E940E24AA98AB988CE28BBBAC98AC9A0C
:104D1000AB9AFBBAAC98AC9AEBBAAC98AC9AAA9A9C
:104D2000DF91CF911F910F91FF90EF900895AF9277
:104D3000BF92CF92DF92EF92FF920F931F93CF9388
:104D4000DF937A0169015801141615060CF06EC044
:104D5000121613060CF06AC0E0914901F0914A0165
:104D60008E179F070CF062C0A0914F01B0915001C7
:104D70006A177B070CF05AC08A01080F191FA80197
:104D80004150504057FD52C0E901C60FD71F9E0148
:104D90002150304037FD4AC097FD02C0870102C054
:104DA00080E090E077FD02C0E60102C060E070E0C4
:104DB0004E175F0734F0AF01415050408F01081B80
:104DC000190B2A173B0734F09D0121503040ED01AB
:104DD000C61BD70B0E940E24BE01882777FD809545
:104DE000982F9801442737FD4095542F0E940F2992
:104DF000AB01BC01C5010E9440228091890088233B
:104E000099F44091490150914A01415050402091FC
:104E10004F01309150012150304080E090E060E03F
:104E200070E00E940E2402C00E942522DF91CF91E3
:104E30001F910F91FF90EF90DF90CF90BF90AF90B8
:104E400008950F931F938C014091490150914A019D
:104E500020914F013091500180E090E060E070E0DF
:104E60000E9497261F910F9108950F931F93CF9340
:104E7000DF93FC018901141615060CF04DC097FD57
:104E80004BC08091490190914A01E817F9070CF055
:104E900043C080914F019091500168177907E4F564
:104EA000EA01C60FD71F9E012150304037FD34C0A4
:104EB00077FD02C0EA0102C060E070E02817390700
:104EC00034F09C0121503040EC01C61BD70BCF01C0
:104ED000AF010E940E24AE01662757FD6095762F24
:104EE000C8010E94402280918900882399F4409152
:104EF000490150914A014150504020914F01309159
:104F000050012150304080E090E060E070E00E946D
:104F10000E2402C00E942522DF91CF911F910F9194
:104F200008950F931F93CF93DF93FC01DB01BA0128
:104F30008901141615060CF04EC0B7FD4CC08091C7
:104F40004F0190915001A817B9070CF044C080910F
:104F5000490190914A01E817F907ECF5EA01CE0FF3
:104F6000DF1FAE014150504057FD35C0F7FD02C074
:104F7000EB0102C0E0E0F0E04817590734F0AC0163
:104F800041505040EC01CE1BDF0BCF01BD019D0114
:104F90000E940E24AE01662757FD6095762FC8014A
:104FA0000E94402280918900882399F44091490110
:104FB00050914A014150504020914F013091500191
:104FC0002150304080E090E060E070E00E940E24CC
:104FD00002C00E942522DF91CF911F910F91089569
:104FE0001F93CF93DF9384E690E00E94AE210E944E
:104FF0007723A0E0B0E080938A0090938B00A09389
:105000008C00B0938D000E940C2288EC90E00E94EE
:10501000AE2180918A0090918B00A0918C00B0917C
:105020008D00853223E9920720E0A20720E0B20735
:1050300041F08832E3E99E07E0E0AE07E0E0BE071A
:10504000F9F410928900AA98CAE1DEE1FE01859187
:105050009491FE013296659174918F3F910521F4F0
:10506000CB010E94AE2102C00E94EC212496FEE1F9
:10507000C63EDF0759F7809147010E94FC24BDC05E
:10508000813423E9920720E0A20720E0B20791F5DE
:1050900082E080938900AA9810E0812F8F5FE12F32
:1050A000F0E0EA51F14E94911E5FE82FF0E0EA51F2
:1050B000F14E84919F3F21F490E00E94AE2117C0F1
:1050C000AA98AB989BBBAC98AC9AAB9A212F90E076
:1050D0000AC0E22FF0E0EA51F14E2F5FE491EBBB02
:1050E000AC98AC9A9F5F9817A0F3180FAA9A1C3639
:1050F000A0F291C08735E3E89E07E0E0AE07E0E06C
:10510000BE0791F583E080938900AA9810E0812F73
:105110008F5FE12FF0E0E855F04E94911E5FE82F8D
:10512000F0E0E855F04E84919F3F21F490E00E941A
:10513000AE2117C0AA98AB989BBBAC98AC9AAB9A1F
:10514000212F90E00AC0E22FF0E0E855F04E2F5FEB
:10515000E491EBBBAC98AC9A9F5F9817A0F3180F43
:10516000AA9A1634A0F257C08537F5E79F07F0E0FA
:10517000AF07F0E0BF0709F581E080938900AA98A6
:10518000C2E5DFE1FE0184912196FE016491219741
:105190008F3F29F4862F90E00E94AE2102C00E942A
:1051A000E3212296FFE1C83ADF0761F780914701CA
:1051B0000E94FC240E9425222EC084559140A040CC
:1051C000B04031F584E080938900AA98CCE8D0E221
:1051D000FE0185919491FE013296659174918F3F05
:1051E000910521F4CB010E94AE2102C00E94EC2166
:1051F000249681E2C030D80759F780E090E060E063
:1052000070E04FEE50E02FE331E00E940E2403C027
:105210008FEF80938900DF91CF911F910895629F56
:10522000D001739FF001829FE00DF11D649FE00D9E
:10523000F11D929FF00D839FF00D749FF00D659FFF
:10524000F00D9927729FB00DE11DF91F639FB00DFE
:10525000E11DF91FBD01CF0111240895AA1BBB1B3D
:1052600051E107C0AA1FBB1FA617B70710F0A61B66
:10527000B70B881F991F5A95A9F780959095BC0187
:10528000CD01089597FB092E07260AD077FD04D09B
:10529000E5DF06D000201AF4709561957F4F0895E0
:1052A000F6F7909581959F4F089597FB092E052657
:1052B0000ED057FD04D014D00AD0001C38F45095FD
:1052C0004095309521953F4F4F4F5F4F0895F6F72A
:1052D00090958095709561957F4F8F4F9F4F089562
:1052E000A1E21A2EAA1BBB1BFD010DC0AA1FBB1FEA
:1052F000EE1FFF1FA217B307E407F50720F0A21B5C
:10530000B30BE40BF50B661F771F881F991F1A94C8
:1053100069F760957095809590959B01AC01BD01F2
:10532000CF010895FB019F01E8944230C4F045325B
:10533000B4F44A3029F497FB1EF4909581959F4F61
:10534000642F77270E942E29805D8A330CF0895DB7
:105350008193CB010097A1F716F45DE2519310827F
:10536000C9010C94B329DC01FC01672F71917723EB
:10537000E1F7329704C07C916D9370836291AE1710
:0A538000BF07C8F30895F894FFCFAB
:10538A00382D6269740055544654206C6962726102
:10539A0072790049440062746E203A20002020206D
:0A53AA00000804020101010132FFB6
:00000001FF
